:020000040800F2
:10000000C807002091070008990700089B0700080F
:100010009D0700089F070008A107000800000000D6
:10002000000000000000000000000000A30700081E
:10003000A507000800000000A7070008A90700089E
:10004000AB070008AB070008AB070008AB070008C8
:10005000AB070008AB070008AB070008AB070008B8
:10006000AB070008AB070008AB070008AB070008A8
:10007000AB070008AB070008AB070008AB07000898
:10008000AB070008AB070008AB070008AB07000888
:10009000AB070008AB070008AB070008AB07000878
:1000A000AB070008AB070008AB070008AB07000868
:1000B000AB07000839060008AB070008AB070008CB
:1000C000AB070008AB070008AB070008AB07000848
:1000D000AB070008AB070008AB070008AB07000838
:1000E000AB070008AB070008AB070008DFF810D02B
:1000F00007F05EF90048004795060008AFF300805E
:10010000C807002008B50020FE490861C860142017
:10011000486100208861C8610846006840F001001D
:10012000086008464068F8490840F64948600846B3
:100130000068F6490840F34908600846006820F462
:10014000802008600846406820F4FE0048600020D7
:1001500088601D208DF8000000208DF8010003202C
:100160008DF8020001208DF80300684603F091FA33
:1001700008BD31B50024FFF7C5FFE248006840F430
:100180008030E049086000BFDE480068400C00286D
:10019000FAD04FF48060DB4948609DF80000801E73
:1001A000C0B20090084640689DF8001040EA8140C7
:1001B000D44948600846406840F480304860D448DC
:1001C000006840F03200D2490860CE48006840F034
:1001D0008070CC49086000BFCA480068400E002803
:1001E000FAD0C848406840F00200C649486005E0BF
:1001F000C4484068C0F3870404F00304022CF7D11C
:1002000038BD10B5C3480078C2114FF40051C24840
:1002100001F0A9FCBF480078C043BE49087010BD7A
:100220001CB5002001900090F0234FF4A072002133
:10023000084600F070FC01221103B74801F093FC5E
:1002400000BF0121B44801F02EFB0128F9D00022A3
:100250002021B14801F087FC01222021AE4801F0A5
:1002600082FC01220221AC4801F07DFC00BF01218B
:10027000A94801F018FB0028F9D000BF0121A648C9
:1002800001F011FB0128F9D000220221A24801F05F
:100290006AFC01F05BF80020019034E0002000903F
:1002A00027E010209C4948619C4800689C490880D0
:1002B000102099490861486198480068C0B299497E
:1002C000088010209449086196480088944909885C
:1002D00040EA012094490880084600889349086054
:1002E000C8148D4948610861BDF80000401C80B207
:1002F0000090BDF80000B0F5A07FD2DBBDF804008F
:10030000401C80B20190BDF80400F028C6DB1CBD83
:100310001CB5002001900090F0234FF4A072002142
:10032000084600F0F8FB012211037B4801F01BFC9A
:1003300000BF0121784801F0B6FA0128F9D0002267
:100340002021754801F00FFC01222021724801F0A4
:100350000AFC01220221704801F005FC00BF0121C6
:100360006D4801F0A0FA0028F9D000BF01216A48C9
:1003700001F099FA0128F9D000220221664801F023
:10038000F2FB00F0E3FF0024012000F058FEFE2005
:1003900000F055FE002001902EE00020009021E0AA
:1003A00010205D4948615D4800685D490880102063
:1003B00059490861486159480068C0B259490880E4
:1003C00010205549086156490988C8B200F037FE27
:1003D00054490988C8B200F032FEBDF80000401C44
:1003E00080B20090BDF80000B0F5A07FD8DBBDF86A
:1003F0000400401C80B20190BDF80400F028CCDB62
:10040000FE2000F01CFE012000F019FE1CBD2DE9AD
:10041000F14384B000240025002003900290019055
:10042000BDF81000C012C0EB00201F2190FBF1F0BE
:10043000C0B20390BDF81000C0F34510C0EB00201F
:100440003F2190FBF1F0C0B20290BDF8100000F027
:100450001F00C0EB00201F2190FBF1F0C0B2019003
:100460009DF80C0006F053FF04469DF80C0006F0C2
:100470004EFF05469DF8080006F049FF0646214656
:1004800006F054FF04D89DF8080006F040FF04462B
:100490009DF8040006F03BFF0646214606F046FFA5
:1004A00004D89DF8040006F032FF04469DF80800C9
:1004B00006F02DFF0646294606F02EFF04D89DF8CB
:1004C000080006F024FF05469DF8040006F01FFF13
:1004D0000646294606F020FF04D89DF8040006F0E1
:1004E00016FF05462146124806F098FE06461149B9
:1004F00006F0C6FE104908602946204606F088FE30
:1005000007461BE0001002400000FFF8FFFFF6FE68
:1005100000200240010000200010014008080140B6
:100520000200002004000020060000200C0C014006
:100530000000C84200007F4320000020844906F0EC
:100540006DFE0646214606F09BFE824908609DF836
:100550000C0006F0DCFE0646214606F0DDFE15D155
:100560002946204606F054FE07469DF808109DF8DF
:100570000420881A06F0C2FE8046394606F080FE46
:100580000646754906F04AFE744908609DF8080061
:1005900006F0BDFE0646214606F0BEFE19D12946EC
:1005A000204606F035FE80469DF804109DF80C208C
:1005B000881A06F0A3FE8146414606F061FE074612
:1005C000654906F02BFE0646654906F0CFFD6349F6
:1005D00008609DF8040006F09AFE0646214606F0E3
:1005E0009BFE19D12946204606F012FE80469DF852
:1005F0000C109DF80820881A06F080FE81464146BE
:1006000006F03EFE0746544906F008FE06465549E8
:1006100006F0ACFD5149086000215048006806F022
:100620007BFE06D250494D48006806F09FFD4B49BD
:10063000086005B0BDE8F08310B54C48008800F0B4
:10064000010008B1FFF7DDFD4848008820F00100F7
:100650004649088010BD10B50121022002F02EF895
:100660004FF4FA604249888043F2FF10088000206E
:10067000C88048803D48103803F0E2F9012241214A
:100680003A48103804F0B0FA01213848103804F024
:1006900026FA10BD00BF00BF1020FFF76AFD00F072
:1006A0005DFC00F087F800F001F900F06DFD00F04E
:1006B000BFFD002208212F4801F055FA00F084FC0C
:1006C000FFF7C9FF46F2666000F04EFA2AA006F076
:1006D00081FE00BF00F077FF0028FBD04FF4784088
:1006E00000F042FA642000F000FC00BF1820254909
:1006F000087035202449087018202449087026E025
:10070000FFF78EFD002000F053FD0446012C1ED1A2
:1007100000220221174801F026FA16E0002000F01E
:1007200047FD0446012C05D101220221114801F0A8
:100730001AFA0BE0022C08D1FFF7EAFDFFF761FD82
:100740004FF47A7000F0BAFB00E0E7E700BFD7E7AC
:100750000000C84224000020000070422800002051
:100760000000F042000070430000B4431004004059
:10077000D00000200010014057656C65636F6D0D5F
:100780000A0000005000002051000020520000200C
:100790000648804706480047FEE7FEE7FEE7FEE71B
:1007A000FEE7FEE7FEE7FEE7FEE7FEE76B70000808
:1007B000ED00000808B50121192001F056FF0121C4
:1007C000F94801F0D5FA10208DF8030003208DF8C8
:1007D00002004FF40070ADF800006946F34800F0E5
:1007E0009DFF4FF48060ADF800006946EF4800F0CF
:1007F00095FF4FF40060ADF800006946EB4800F04B
:100800008DFF4FF48050ADF800006946E74800F0D6
:1008100085FF4FF48070ADF800006946E34800F0B2
:100820007DFF4FF6FF70ADF800006946E04800F02C
:1008300075FF01229102DD4801F095F90122D102F4
:10084000DA4801F090F901221103D84801F08BF940
:1008500000224FF40071D54801F085F908BD10B5AC
:100860000446D3480C3004600022C114CF4801F084
:100870007AF90122D102CD4801F075F910BD10B509
:10088000044600224FF48051C84801F06CF920461C
:10089000FFF7E5FF10BD10B5044601221103C34860
:1008A00001F061F92046FFF7DAFF10BD10B5012213
:1008B0001102BE4801F057F90A2000F016FB002291
:1008C0004FF48071B94801F04EF90A2000F00DFB99
:1008D00001221102B54801F046F90A2000F005FB9B
:1008E000CF20FFF7CCFF0020FFF7D5FFC120FFF797
:1008F000D2FF3020FFF7CFFFED20FFF7C0FF6420CD
:10090000FFF7C9FF0320FFF7C6FF1220FFF7C3FF61
:100910008120FFF7C0FFE820FFF7B1FF8520FFF738
:10092000BAFF1020FFF7B7FF7A20FFF7B4FFCB2004
:10093000FFF7A5FF3920FFF7AEFF2C20FFF7ABFF35
:100940000020FFF7A8FF3420FFF7A5FF0220FFF7E4
:10095000A2FFF720FFF793FF2020FFF79CFFEA207C
:10096000FFF78DFF0020FFF796FF0020FFF793FFB2
:10097000C020FFF784FF1B20FFF78DFFC120FFF78A
:100980007EFF0120FFF787FFC520FFF778FF3020AB
:10099000FFF781FF3020FFF77EFFC720FFF76FFFD3
:1009A000B720FFF778FF3620FFF769FF4820FFF7F1
:1009B00072FF3A20FFF763FF5520FFF76CFFB1206D
:1009C000FFF75DFF0020FFF766FF1A20FFF763FFC8
:1009D000B620FFF754FF0A20FFF75DFFA220FFF7C4
:1009E0005AFFF220FFF74BFF0020FFF754FF2620AD
:1009F000FFF745FF0120FFF74EFFE020FFF73FFF25
:100A00000F20FFF748FF2A20FFF745FF2820FFF7B8
:100A100042FF0820FFF73FFF0E20FFF73CFF0820B2
:100A2000FFF739FF5420FFF736FFA920FFF733FF08
:100A30004320FFF730FF0A20FFF72DFF0F20FFF7BD
:100A40002AFF0020FFF727FF0020FFF724FF0020E8
:100A5000FFF721FF0020FFF71EFFE120FFF70FFF48
:100A60000020FFF718FF1520FFF715FF1720FFF7ED
:100A700012FF0720FFF70FFF1120FFF70CFF0620E2
:100A8000FFF709FF2B20FFF706FF5620FFF703FFB4
:100A90003C20FFF700FF0520FFF7FDFE1020FFF7C9
:100AA000FAFE0F20FFF7F7FE3F20FFF7F4FE3F208E
:100AB000FFF7F1FE0F20FFF7EEFE2B20FFF7DFFE22
:100AC0000020FFF7E8FE0020FFF7E5FE0120FFF71A
:100AD000E2FE3F20FFF7DFFE2A20FFF7D0FE0020D6
:100AE000FFF7D9FE0020FFF7D6FE0020FFF7D3FE68
:100AF000EF20FFF7D0FE1120FFF7C1FE782000F0B5
:100B0000DDF92920FFF7BBFE3620FFF7B8FE6C2089
:100B1000FFF7C1FE10BD2DE9F04104460D46164613
:100B20001F462A20FFF7ABFE2012FFF7B4FEE0B20B
:100B3000FFF7B1FE3012FFF7AEFEF0B2FFF7ABFEEB
:100B40002B20FFF79CFE2812FFF7A5FEE8B2FFF767
:100B5000A2FE3812FFF79FFEF8B2FFF79CFE2C2092
:100B6000FFF78DFEBDE8F08170B50646F0234FF427
:100B7000A07200210846FFF7CEFF012211030B48A7
:100B800000F0F1FF00240AE0002504E03046FFF702
:100B900066FE681C85B2F02DF8DB601C84B2B4F5EB
:100BA000A07FF1DB70BD00000002300000100140AA
:100BB000000C014070B504460D4616462B462246F1
:100BC00029462046FFF7A7FF01221103B24800F093
:100BD000CAFF3046FFF743FE70BD2DE9F0470646D9
:100BE0000F4690469A46A8F1200000F0FF08BAF19F
:100BF000000F26D1002421E0A84800EB081010F8CF
:100C00000490002516E009F0010040B13A1991B2B4
:100C1000721990B24FF6FF72FFF7CCFF06E03A1957
:100C200091B2721990B20022FFF7C4FF4FEA69092E
:100C3000681CC5B2082DE6DB601CC4B2122CDBDBDD
:100C40001DE0002419E0954800EB081010F804900E
:100C500000250EE009F0010038B13A1991B272197D
:100C600090B24FF6FF72FFF7A5FF4FEA6909681CC3
:100C7000C5B20A2DEEDB601CC4B2142CE3DBF023FA
:100C80004FF4A07200210846FFF745FFBDE8F0874A
:100C900010B50246012000E050430B1EA1F10104F3
:100CA000E1B2F9D110BD2DE9F04104460E461546DA
:100CB00042F2107095FBF0F03030C7B200233A4694
:100CC00031462046FFF789FF4FF47A7095FBF0F02C
:100CD0000A2190FBF1F201FB12003030C7B204F19F
:100CE000080188B200233A463146FFF776FF6420B8
:100CF00095FBF0F00A2190FBF1F201FB120030307D
:100D0000C7B204F1100188B200233A463146FFF71A
:100D100064FF04F1180188B200232E223146FFF748
:100D20005CFF0A2095FBF0F00A2190FBF1F201FB39
:100D300012003030C7B204F1200188B200233A46D5
:100D40003146FFF74AFF0A2095FBF0F100FB1150F6
:100D50003030C7B204F1280188B200233A46314648
:100D6000FFF73BFFBDE8F0812DE9F04706468946D5
:100D700017461D46002418E0281B401EC1B20A2059
:100D8000FFF786FFB7FBF0F00A21B0FBF1F201FBA1
:100D9000120808F13001CAB206EBC40188B2002380
:100DA0004946FFF71AFF601CC4B2AC42E4DBBDE861
:100DB000F0872DE9F04104460D46B4F5A07F01DA35
:100DC000F02D02DB0020BDE8F0812B4622462946AB
:100DD0002046FFF7A0FE2E20FFF751FD4FF0883090
:100DE0002F490860091D08604FF6FF702C490C312F
:100DF000086001228914284800F0B5FE00224FF453
:100E00000071254800F0AFFE00224FF480612248B7
:100E100000F0A9FE642000F05DF8012291021E4856
:100E200000F0A1FE00224FF480611B4800F09BFE01
:100E3000642000F04FF81A480830006886B201229A
:100E40009102154800F08FFE00224FF48061124895
:100E500000F089FE1248083000681FFA80F801226D
:100E600091020D4800F07FFEF7B24FF6FF7000EAE6
:100E700007274FF033300A490860091D08604FF614
:100E8000FF7007490C310860F012C002B91240EA45
:100E9000411040EAE82096E7001001402474000861
:100EA000000C0140014606E04FF4FA7200E0521EC9
:100EB000002AFCD1491E0029F6D17047014606E000
:100EC00043F6982200E0521E002AFCD1491E002958
:100ED000F6D17047014605E0142200E0521E002AB8
:100EE000FCD1491E0029F7D17047014642F2283251
:100EF0004A434FF0E0235A6100229A6101221A61AD
:100F000000BF4FF0E022106900F001021AB100F4B6
:100F10008032002AF5D000224FF0E0231A619A6156
:100F20007047014601EBC1024FF0E0235A610022F5
:100F30009A6101221A6100BF4FF0E022106900F0AF
:100F400001021AB100F48032002AF5D000224FF0DD
:100F5000E0231A619A61704700BFFEE708B50121DE
:100F6000102001F082FB0121202001F07EFB4FF4D4
:100F70000050ADF8000010208DF8030003208DF81C
:100F800002006946084800F0C9FB0420ADF80000E3
:100F900010208DF8030003208DF8020069460348F5
:100FA00000F0BCFB08BD000000100140001401402F
:100FB00000BF734A128802F04002002AF9D0C2B280
:100FC0006F4B1B1D1A80704700B585B001210520AD
:100FD00001F04BFB0121880301F047FB18208DF83D
:100FE00013004FF40070ADF8100003208DF81200CC
:100FF00004A9644800F092FB04208DF8130000025D
:10100000ADF8100004A95F4800F088FB4FF4E13010
:1010100000900020ADF80400ADF80600ADF808001F
:10102000ADF80C000C20ADF80A006946544801F0F8
:1010300098FC0121524801F0D8FD05B000BD10B563
:10104000044621464E4801F0B6FF00BF40214C48FF
:1010500002F090F90028F9D010BD10B5044603E065
:1010600014F8010BFFF7EBFF20780028F8D110BD32
:1010700010B5044600BF4021414802F07BF900282A
:10108000F9D0E1B23E4801F096FF10BD10B500BFA7
:1010900020213B4802F06EF90028F9D0384801F0D1
:1010A000B1FF10BD2DE9F04104460A20B4FBF0F178
:1010B00000FB11456420B4FBF0F100FB11400A2154
:1010C000B0FBF1F64FF47A70B4FBF0F100FB114085
:1010D0006421B0FBF1F0C7B24FF47A70B4FBF0F0CA
:1010E00000F0FF0808F13000FFF7C2FF07F1300001
:1010F000FFF7BEFF06F13000FFF7BAFF05F1300041
:10110000FFF7B6FF0D20FFF7B3FF0A20FFF7B0FF90
:10111000BDE8F0812DE9F04104460A20B4FBF0F16E
:1011200000FB11456420B4FBF0F100FB11400A21E3
:10113000B0FBF1F64FF47A70B4FBF0F100FB114014
:101140006421B0FBF1F0C7B24FF47A70B4FBF0F059
:1011500000F0FF0808F13000FFF78AFF07F13000C8
:10116000FFF786FF06F13000FFF782FF05F1300040
:10117000FFF77EFF2020FFF77BFFBDE8F081000036
:10118000003801400008014008B50121042001F0A9
:101190006CFA48208DF8030003208DF802004FF40C
:1011A0008850ADF8000069461F4800F0B7FA08BD46
:1011B00010B5044614B101201C4908701B48007882
:1011C00008B34FF48071184800F06DFB28B14FF45C
:1011D0008051154800F067FBA8B90A20FFF76EFEA2
:1011E0000020124908704FF480710F4800F05BFB3B
:1011F00008B9012010BD4FF480510B4800F053FB9B
:1012000080B90220F6E74FF48071074800F04BFBED
:10121000012807D10103044800F045FB012801D152
:10122000024908700020E5E700080140A300002003
:1012300008B50121102001F018FA0121102001F059
:1012400014FA0121102001F010FA0121102001F000
:101250000CFA0121102001F008FA0121102001F000
:1012600004FA0121102001F000FA0121102001F000
:10127000FCF910208DF8030003208DF802000220F5
:10128000ADF800006946E54800F048FA0420ADF8E2
:1012900000006946E14800F041FA0820ADF800007E
:1012A0006946DE4800F03AFA1020ADF800006946C1
:1012B000DA4800F033FA2020ADF800006946D7483C
:1012C00000F02CFA4020ADF800006946D34800F049
:1012D00025FA8020ADF800006946D04800F01EFADB
:1012E0004FF40050ADF800006946CC4800F016FA03
:1012F0000121042001F0B9F948208DF803004FF6D0
:10130000FF70ADF800006946C54800F007FA08BD57
:1013100008B548208DF8030003208DF802008020D6
:10132000ADF800006946BD4800F0F8F908BD08B501
:1013300010208DF8030003208DF802008020ADF806
:1013400000006946B54800F0E9F908BD0420B3493A
:10135000486110204861086148610420086110203C
:101360000861704710B501228021AC4800F0FBFBFA
:101370000220FFF797FD01224021A84800F0F3FB6F
:101380000220FFF78FFD00228021A44800F0EBFB34
:101390000220FFF787FD00224021A04800F0E3FB78
:1013A0000220FFF77FFD10BD10B5002280219B4871
:1013B00000F0D9FB0220FFF775FD0122402197487C
:1013C00000F0D1FB0220FFF76DFD01228021934840
:1013D00000F0C9FB0220FFF765FD10BD10B501222A
:1013E00080218E4800F0BFFB0220FFF75BFD012249
:1013F00040218A4800F0B7FB0220FFF753FD00228E
:101400004021864800F0AFFB0220FFF74BFD002291
:101410008021824800F0A7FB0220FFF743FD10BDAA
:1014200010B5FFF775FF012280217C4800F09BFB7F
:101430000220FFF737FD01224021784800F093FB9E
:101440000220FFF72FFD8021744800F02CFA04469B
:101450000220FFF727FD00224021704800F083FBA7
:101460000220FFF71FFDFFF762FF002280216B487B
:1014700000F079FB0CB9012010BD0020FCE770B52D
:10148000054600241CE005FA04F0C0F3C0128021D8
:10149000624800F068FB0220FFF704FD01224021B2
:1014A0005E4800F060FB0220FFF7FCFC00224021B8
:1014B0005A4800F058FB0220FFF7F4FC601CC4B24D
:1014C000082CE0DB00228021544800F04CFBFFF7A1
:1014D000A7FF70BD70B50025FFF71AFF00241CE0C0
:1014E000012240214D4800F03EFB0220FFF7DAFCCC
:1014F00080214A4800F0D7F910B1802020410543EF
:101500000220FFF7CFFC00224021444800F02BFBD3
:101510000220FFF7C7FC601CC4B2082CE0DBFFF719
:1015200006FF002280213D4800F01DFB284670BDCB
:1015300070B505460C46FFF715FF4220FFF79FFFE9
:1015400018B9FFF731FF002070BD2846FFF797FF5D
:1015500018B9FFF729FF0020F6E72046FFF78FFFB5
:1015600018B9FFF721FF0020EEE7FFF71DFF01206C
:10157000EAE770B505460C46FFF7F4FE4220FFF798
:101580007EFF18B9FFF710FF002070BD2846FFF757
:1015900076FF18B9FFF708FF0020F6E7FFF704FF12
:1015A000FFF7E0FE4320FFF76AFF18B9FFF7FCFEE4
:1015B0000020EAE7FFF78EFF2070FFF70FFFFFF72D
:1015C000F3FE0120E1E738B50024802000909DF86B
:1015D00000101220FFF7ACFF08B9002038BD6946A3
:1015E0000B20FFF7C6FF08B90020F7E79DF80000C1
:1015F000732811D100240DE00A4A02EB440251780D
:10160000084A12F81400FFF793FF08B90020E5E735
:10161000601CC4B2B82CEFDB0120DFE700100140F2
:1016200000080140147A000810B50446FC488442C2
:1016300011D0FC4884420ED0FB4884420BD0FB48BA
:10164000844208D0FA48844205D0FA48844202D045
:10165000F948844200D103E06F21F8A0FFF77CFC39
:10166000EF48844208D10121042001F050F8002104
:10167000042001F04CF846E0EA48844208D10121F8
:10168000082001F044F80021082001F040F83AE079
:10169000E548844208D10121102001F038F80021EA
:1016A000102001F034F82EE0E048844208D10121F6
:1016B000202001F02CF80021202001F028F822E061
:1016C000DB48844208D10121402001F020F80021AC
:1016D000402001F01CF816E0D648844208D10121D0
:1016E000802001F014F80021802001F010F80AE0B9
:1016F000D148844207D10121801501F008F800216A
:10170000A01501F004F810BD10B50121084600F045
:10171000FEFF0021012000F0FAFF10BD2DE9F05F6F
:1017200005460C464FF00009CA4600260027B04681
:10173000B346BB48854211D0BA4885420ED0BA485C
:1017400085420BD0B948854208D0B948854205D0BA
:10175000B848854202D0B848854200D103E0B221A2
:10176000B6A0FFF7F9FBE078A0B1E078042811D02B
:10177000E07828280ED0E07848280BD0E0781428AC
:1017800008D0E078102805D0E0781C2802D0E07856
:10179000182800D103E0B321A8A0FFF7DDFB00204B
:1017A00010B9208800B103E0B421A4A0FFF7D4FB56
:1017B000E07800F00F09E07800F0100080B1A07828
:1017C000012805D0A078022802D0A078032800D1F3
:1017D00003E0BB2199A0FFF7BFFBA07840EA09090D
:1017E000207838B3D5F8008000261FE0012000FAE9
:1017F00006F7208800EA070ABA4516D1B7000F207D
:1018000000FA07FB28EA0B0809FA07F040EA080883
:10181000E078282803D10120B040686105E0E07835
:10182000482802D10120B0402861761C082EDDD363
:10183000C5F800802088FF282BDDD5F8048000261D
:1018400023E006F10800012101FA00F7208800EAF0
:10185000070ABA4518D1B7000F2000FA07FB28EA9B
:101860000B0809FA07F040EA0808E078282803D1B5
:1018700006F1080081406961E078482804D106F14A
:101880000800012181402961761C082ED9D3C5F8B2
:101890000480BDE8F09F4FF6FF7101800221817046
:1018A0000421C170704770B505460C4600265C489F
:1018B000854211D05B4885420ED05B4885420BD0F3
:1018C0005A48854208D05A48854205D05948854231
:1018D00002D05948854200D104E04FF48F7157A0DF
:1018E000FFF73AFB012C25D0022C23D0042C21D069
:1018F000082C1FD0102C1DD0202C1BD0402C19D010
:10190000802C17D0B4F5807F14D0B4F5007F11D0AF
:10191000B4F5806F0ED0B4F5006F0BD0B4F5805FD6
:1019200008D0B4F5005F05D0B4F5804F02D0B4F50F
:10193000004F00D104E040F21F1140A0FFF70CFB64
:10194000A868204008B1012600E00026304670BD9E
:1019500010B504463248844211D0324884420ED039
:10196000314884420BD03148844208D03048844208
:1019700005D03048844202D02F48844200D104E090
:101980004FF49A712DA0FFF7E7FAA06880B210BD5E
:1019900070B505460C4600262148854211D02148E5
:1019A00085420ED0204885420BD02048854208D081
:1019B0001F48854205D01F48854202D01E488542F7
:1019C00000D104E04FF4A2711CA0FFF7C5FA012C6E
:1019D00025D0022C23D0042C21D0082C1FD0102C71
:1019E0001DD0202C1BD0402C19D0802C17D0B4F542
:1019F000807F14D0B4F5007F11D0B4F5806F0ED085
:101A0000B4F5006F0BD0B4F5805F08D0B4F5005F7B
:101A100005D0B4F5804F02D0B4F5004F1ED123E0BD
:101A200000080140000C014000100140001401407A
:101A300000180140001C0140002001402E2E5C4C8B
:101A40006962726172795C7372635C73746D333254
:101A5000663130785F6770696F2E630040F2451120
:101A6000AFF22800FFF778FAE868204008B10126B5
:101A700000E00026304670BD10B50446FE488442A2
:101A800011D0FE4884420ED0FD4884420BD0FD4860
:101A9000844208D0FC48844205D0FC48844202D0ED
:101AA000FB48844200D105E04FF4AD71AFF2740001
:101AB000FFF752FAE06880B210BD70B504460D46DB
:101AC000ED48844211D0ED4884420ED0EC48844267
:101AD0000BD0EC48844208D0EB48844205D0EB4858
:101AE000844202D0EA48844200D105E040F2691104
:101AF000AFF2B800FFF730FA002008B905B105E0F1
:101B00004FF4B571AFF2CC00FFF726FA256170BD36
:101B100070B504460D46D848844211D0D748844257
:101B20000ED0D74884420BD0D648844208D0D6483D
:101B3000844205D0D548844202D0D548844200D1A1
:101B400005E040F27911AFF20C10FFF705FA002022
:101B500008B905B105E04FF4BD71AFF22010FFF7F1
:101B6000FBF9656170BD70B505460C461646C24866
:101B7000854211D0C14885420ED0C14885420BD064
:101B8000C048854208D0C048854205D0BF4885423C
:101B900002D0BF48854200D105E040F28D11AFF27E
:101BA0006410FFF7D9F9012C25D0022C23D0042C86
:101BB00021D0082C1FD0102C1DD0202C1BD0402C45
:101BC00019D0802C17D0B4F5807F14D0B4F5007FE5
:101BD00011D0B4F5806F0ED0B4F5006F0BD0B4F512
:101BE000805F08D0B4F5005F05D0B4F5804F02D017
:101BF000B4F5004F00D105E04FF4C771AFF2C41047
:101C0000FFF7AAF90EB1012E00D105E040F28F11C5
:101C1000AFF2D810FFF7A0F90EB12C6100E06C61B3
:101C200070BD70B504460D469348844211D0934868
:101C300084420ED0924884420BD09248844208D00D
:101C40009148844205D09148844202D09048844211
:101C500000D105E04FF4D271AFF22020FFF77CF9FC
:101C6000E56070BD70B504460D464FF4803682487D
:101C7000844211D0814884420ED0814884420BD0E6
:101C80008048844208D08048844205D07F488442FE
:101C900002D07F48844200D105E040F2B511AFF296
:101CA0006420FFF759F9002008B905B105E04FF4A9
:101CB000DB71AFF27820FFF74FF92E43A661A561E3
:101CC000A661A669A66970BD70B505460C460026DA
:101CD0003DB1012D05D0022D03D0032D01D0042DDF
:101CE00000D105E04FF4E971AFF2B020FFF734F90D
:101CF000ECB1012C1BD0022C19D0032C17D0042CD2
:101D000015D0052C13D0062C11D0072C0FD0082C81
:101D10000DD0092C0BD00A2C09D00B2C07D00C2C81
:101D200005D00D2C03D00E2C01D00F2C00D105E0D6
:101D300040F2D311AFF2FC20FFF70EF955480668C8
:101D40004FF68070064046EA051626435148066065
:101D500070BD10B504460CB1012C00D105E04FF464
:101D6000F371AFF22830FFF7F7F84B48C46110BDAC
:101D70002DE9F04704460E460027B8460025A9463F
:101D8000012C77D0022C75D0042C73D0082C71D084
:101D9000424884426ED04148203084426AD0404854
:101DA000844267D03E488030844263D03D488442BC
:101DB00060D03D4884425DD03C4884425AD03C4883
:101DC000844257D03B48844254D0B4F5805F51D010
:101DD000B4F5EA1F4ED0B4F5EB1F4BD0B4F5004F6D
:101DE00048D03548844245D0401C844242D0801CB3
:101DF00084427FD0001D84427CD02F480F30844223
:101E000078D0B4F1201F75D04FEAF030844271D001
:101E10002A4884426ED02A4884426BD029488442A2
:101E200068D02948844265D02848844262D0B4F5FD
:101E3000011F5FD0264884425CD0401C844259D0A8
:101E4000801C844256D0001D844253D020480F305D
:101E500084424FD01E481F3084424BD01C483F3034
:101E6000844247D01A487F30844243D01848FF301C
:101E700084422FE03EE0000000080140000C0140D9
:101E8000001001400014014000180140001C0140F6
:101E9000002001400000014000002042100014001A
:101EA000400016000001180000021800000318008E
:101EB00000081A00000C1A00010020000001300088
:101EC000000230000004300000112000002020003B
:101ED000010000800ED0664884420BD065488442E1
:101EE00008D06548844205D06448844202D06448E2
:101EF000844200D105E040F22A21AFF2C040FFF752
:101F00002BF80EB1012E00D105E040F22B21AFF2EB
:101F1000D440FFF721F804F00040B0F1004F02D1A7
:101F20005848C56901E057484568C4F30349A7B25A
:101F300004F44010B0F5401F08D125F070655148F9
:101F4000406820F070604F49486013E004F480104E
:101F5000B0F5801F07D1032000FA09F825EA08052B
:101F600045F0706506E0600D000107FA00F085435A
:101F700045F0706526B1600D010107FA01F00543D7
:101F800004F00040B0F1004F02D13E48C56101E0CD
:101F90003C484560BDE8F08770B505460C46002614
:101FA0005DB1012D09D0022D07D0032D05D0042DE0
:101FB00003D0052D01D0062D00D105E040F26521AA
:101FC000AFF28850FEF7C8FFECB1012C1BD0022CF9
:101FD00019D0032C17D0042C15D0052C13D0062CA7
:101FE00011D0072C0FD0082C0DD0092C0BD00A2CA7
:101FF00009D00B2C07D00C2C05D00D2C03D00E2CA7
:1020000001D00F2C00D105E040F26621AFF2D45090
:10201000FEF7A2FFA007010F0F2000FA01F61948F2
:102020000830A11050F82100B04316490831A21021
:1020300041F822000846A11050F82100A107090F1D
:1020400005FA01F108430F490831A21041F82200B6
:1020500070BD10B504460CB1012C00D105E04FF461
:102060001E71AFF22860FEF777FF0748046010BDCD
:102070000002008000040080000800800010008042
:102080000020008000000140DC002042FE48006883
:1020900040F00100FC49086008464068FB490840E0
:1020A000F949486008460068F9490840F64908605F
:1020B0000846006820F4802008600846406820F444
:1020C000FE0048604FF41F008860704710B504465A
:1020D0002CB1B4F5803F02D0B4F5802F00D104E0DC
:1020E00040F21111EBA0FEF737FFE748006820F43B
:1020F0008030E54908600846006820F480200860C8
:10210000B4F5803F03D0B4F5802F0ED106E0DE4851
:10211000006840F48030DC49086007E0DA48006875
:1021200040F4A020D849086000E000BF00BF10BD07
:102130002DE9F0410446002500260027212C13D06C
:10214000312C11D0392C0FD0412C0DD0612C0BD05B
:102150007A2C09D07B2C07D07C2C05D07D2C03D089
:102160007E2C01D07F2C00D104E040F23451C9A074
:10217000FEF7F2FE6511012D02D1C348066806E0A4
:10218000022D02D1C048066A01E0BF48466A04F049
:102190001F050120A840304008B1012700E00027BA
:1021A0003846BDE8F08138B50020009000240025B5
:1021B00000BF3120FFF7BCFF05460098401C00908F
:1021C0000098B0F5A06F01D0002DF2D03120FFF7BC
:1021D000AFFF08B1012400E00024204638BD70B5EF
:1021E000044600251F2C00DC04E04FF4A971A9A0CF
:1021F000FEF7B2FEA448056825F0F80545EAC405D7
:10220000056070BD10B504460CB1012C00D104E08E
:1022100040F265119FA0FEF79FFEA648046010BD26
:1022200070B505460C4600262DB1B5F5803F02D0AD
:10223000B5F5403F00D104E040F27F1195A0FEF7D4
:102240008BFE4CB3B4F5802F26D0B4F5002F23D0ED
:10225000B4F5402F20D0B4F5801F1DD0B4F5A01FD9
:102260001AD0B4F5C01F17D0B4F5E01F14D0B4F5E0
:10227000001F11D0B4F5101F0ED0B4F5201F0BD0E5
:10228000B4F5301F08D0B4F5401F05D0B4F5501F89
:1022900002D0B4F5601F00D104E04FF4C0717DA0FE
:1022A000FEF75AFE7848466826F47C1645EA040094
:1022B00006437548466070BD10B504460CB1012C4C
:1022C00000D104E04FF4CA7172A0FEF745FE7948D0
:1022D000046610BD70B5044600251CB1012C01D068
:1022E000022C00D104E04FF40E716AA0FEF734FE18
:1022F0006548456825F003052543456070BD624883
:10230000406800F00C00704770B5044600257CB1B1
:10231000802C0DD0902C0BD0A02C09D0B02C07D045
:10232000C02C05D0D02C03D0E02C01D0F02C00D153
:1023300004E04FF4197157A0FEF70EFE52484568AD
:1023400025F0F0052543456070BD70B504460025B5
:102350005CB1B4F5806F08D0B4F5A06F05D0B4F5CA
:10236000C06F02D0B4F5E06F00D104E040F27E21EE
:1023700048A0FEF7F1FD4448456825F4E065254393
:10238000456070BD70B5044600255CB1B4F5806F42
:1023900008D0B4F5A06F05D0B4F5C06F02D0B4F585
:1023A000E06F00D104E04FF426713AA0FEF7D4FDAF
:1023B0003548456825F4605545EAC405456070BD5B
:1023C00070B504460D4604F0E00008B904B104E01D
:1023D00040F2BF212FA0FEF7BFFD0DB1012D00D1AE
:1023E00004E04FF430712BA0FEF7B6FD2DB1264866
:1023F000407A20432449487204E02348407AA043AD
:102400002149487270BD10B504460CB1012C00D1B1
:1024100004E040F2DB211FA0FEF79EFD2548D830E6
:10242000046010BD70B50446002544B1B4F5804F7A
:1024300005D0B4F5004F02D0B4F5404F00D104E010
:1024400040F2023113A0FEF787FD0F48456825F4DE
:1024500040452543456070BD10B504461CB1012CB4
:1024600001D0042C00D104E04FF4507109A0FEF714
:1024700073FD0020044920310870034981F82000D1
:10248000012C1BD0042C17E0001002400000FFF8C4
:10249000FFFFF6FE2E2E5C4C6962726172795C73EE
:1024A00072635C73746D3332663130785F7263636C
:1024B0002E6300000000424208D103E00120F449ED
:1024C000087004E00520F249087000E000BF00BF7A
:1024D00010BD10B504460CB1012C00D105E040F24E
:1024E0006131AFF25000FEF737FDEA48046010BDDD
:1024F00010B50446B4F5807F05D0B4F5007F02D056
:10250000B4F5407F00D105E040F27231AFF27C00BB
:10251000FEF722FDDE482038006A2043DC492039DE
:10252000086210BD10B504460CB1012C00D105E0C5
:102530004FF46071AFF2A400FEF70EFDD5484438A9
:10254000046010BD30B50021002200240023D04DCE
:10255000203D6D6805F00C0121B1042905D0082942
:1025600026D105E0CC4D056025E0CB4D056022E08D
:10257000C74D203D6D6805F47012C54D203D6D6856
:1025800005F48034022505EB92421CB9C34D554336
:1025900005600CE0BE4D203D6D6805F400351DB1B1
:1025A000BE4D5543056002E0BB4D5543056002E05A
:1025B000B94D056000BF00BFB54D203D6D6805F009
:1025C000F0010909B64D6B5C0568DD404560B04D12
:1025D000203D6D6805F4E061090AB14D6B5C45680A
:1025E000DD408560AA4D203D6D6805F46051C90A43
:1025F000AB4D6B5C4568DD40C560A54D203D6D6809
:1026000005F44041890BA74D6B5CC568B5FBF3F53C
:10261000056130BD70B504460D4640F2575024EABE
:10262000000008B904B105E040F22B41AFF29C1064
:10263000FEF792FC0DB1012D00D105E040F22C41D6
:10264000AFF2B010FEF788FC3DB1914820384069E8
:1026500020438F492039486106E08D482038406981
:10266000A0438B492039486170BD70B504460D46C2
:102670008D48204008B904B105E040F24A41AFF26C
:10268000EC10FEF769FC0DB1012D00D105E040F220
:102690004B41AFF20020FEF75FFC3DB17C48203893
:1026A000806920437A492039886106E078482038DB
:1026B0008069A04376492039886170BD70B50446B1
:1026C0000D467A48204008B904B105E040F269415E
:1026D000AFF24020FEF740FC0DB1012D00D105E026
:1026E00040F26A41AFF25420FEF736FC3DB1684833
:1026F0002038C069204366492039C86106E0644833
:102700002038C069A04362492039C86170BD70B5E6
:1027100004460D466448204008B904B105E040F283
:10272000A441AFF29020FEF717FC0DB1012D00D1AE
:1027300005E040F2A541AFF2A420FEF70DFC3DB14B
:1027400053482038C068204351492039C86006E00A
:102750004F482038C068A0434D492039C86070BD3B
:1027600070B504460D465148204008B904B105E053
:1027700040F2C341AFF2E420FEF7EEFB0DB1012DB4
:1027800000D105E040F2C441AFF2F820FEF7E4FBCF
:102790003DB13F482038006920433D492039086158
:1027A00006E03B4820380069A043394920390861D8
:1027B00070BD10B504460CB1012C00D105E04FF4FA
:1027C0009B61AFF23030FEF7C7FB324840380460FF
:1027D00010BD10B504460CB1012C00D105E040F24B
:1027E000E541AFF25030FEF7B7FB3148C46410BD8D
:1027F00010B504463CB1052C05D0042C03D0062CA2
:1028000001D0072C00D105E040F20551AFF27C3039
:10281000FEF7A2FB1E482038C47110BD1C482038AA
:10282000406A40F080701A4920394862704770B59C
:1028300004460025012C09D0022C07D0042C05D019
:10284000082C03D0102C01D0802C00D105E040F2E0
:102850007E51AFF2C030FEF77FFB0D482038806814
:10286000204008B1012500E00025284670BD10B5C4
:10287000044604F0600008B904B105E040F2AB5131
:10288000AFF2F030FEF768FB01482038847210BDCB
:10289000201002408004424200127A0000093D00EC
:1028A000A4000020B40000200200C0FF0036018117
:1028B0000000424210B50446FE4884420BD0FE4858
:1028C000844208D0FD48844205D0FD48844202D0AD
:1028D000FC48844200D103E08521FBA0FEF73CFBCD
:1028E000F448844209D101218803FFF710FF002139
:1028F0004FF48040FFF70BFF32E0EF48844209D1EC
:1029000001214804FFF72CFF00214FF40030FFF7AE
:1029100027FF25E0E948844209D101218804FFF717
:102920001FFF00214FF48020FFF71AFF18E0E44852
:10293000844209D10121C804FFF712FF00214FF49E
:102940000020FFF70DFF0BE0DE48844208D1012193
:102950000805FFF705FF00214FF48010FFF700FF87
:1029600010BD2DE9F04786B005460C460026B2465C
:1029700000BFB1460027CF4885420BD0CE488542E4
:1029800008D0CE48854205D0CD48854202D0CD48FA
:10299000854200D103E0B821CBA0FEF7DDFA206824
:1029A00020B1D2492068884200D203E0B921C6A0F4
:1029B000FEF7D2FAA08818B1A088B0F5805F00D1E8
:1029C00003E0BA21C0A0FEF7C7FAE08858B1E0885A
:1029D000B0F5805F07D0E088B0F5005F03D0E088F5
:1029E000B0F5405F00D103E0BB21B7A0FEF7B4FA19
:1029F000208938B12089B0F5806F03D02089B0F5E7
:102A0000C06F00D103E0BC21AFA0FEF7A5FA60893A
:102A10004FF6F371084010B9608900B103E0BD21A1
:102A2000A9A0FEF799FAA08958B1A089B0F5807FD6
:102A300007D0A089B0F5007F03D0A089B0F5407F12
:102A400000D103E0BE21A0A0FEF786FAA08968B1FC
:102A50009848854205D09848854202D097488542DB
:102A600000D103E0C22198A0FEF776FA2F462E8A05
:102A70004CF6FF700640E08806432E82AE894EF683
:102A8000F3100640A0882189084361890843064362
:102A9000AE81AE8A4FF6FF400640A0890643AE8263
:102AA00001A8FFF74FFD8348874202D1DDF810A04F
:102AB00001E0DDF80CA0A88900F4004040B10AEB69
:102AC000CA0000EB0A1021684900B0FBF1F807E0EA
:102AD0000AEBCA0000EB0A1021688900B0FBF1F88C
:102AE0006420B8FBF0F006013009642101FB108975
:102AF000A88900F4004040B1322000EBC900B0FBCF
:102B0000F1F000F00700064308E0322000EB091066
:102B10006421B0FBF1F000F00F0006432E8106B0F7
:102B2000BDE8F0874FF41651016000218180C1801B
:102B300001810C21418100218181704770B50546DA
:102B40000C4600265B48854205D05B48854202D092
:102B50005A48854200D104E04FF499715AA0FEF71B
:102B6000FBF9208818B12088B0F5006F00D104E08F
:102B700040F2331154A0FEF7EFF9608818B1608875
:102B8000B0F5806F00D104E04FF49A714EA0FEF7CB
:102B9000E3F9A08818B1A088B0F5007F00D104E067
:102BA00040F2351148A0FEF7D7F9E08818B1E08867
:102BB000B0F5807F00D104E04FF49B7142A0FEF796
:102BC000CBF92E8A4FF2FF00064020886188084327
:102BD000A1880843E188084306432E8270BD002186
:102BE000018041808180C180704770B504460D46E8
:102BF000304884420BD03048844208D02F48844269
:102C000005D02F48844202D02E48844200D104E0EF
:102C10004FF4B1712CA0FEF79FF90DB1012D00D139
:102C200004E040F2631128A0FEF796F925B1A089CF
:102C300040F40050A08104E0A0894DF6FF710840E7
:102C4000A08170BD2DE9F04705460C4617464FF0B0
:102C50000008C246C1460026164885420BD01648D9
:102C6000854208D01548854205D01548854202D0D6
:102C70001448854200D104E040F2891112A0FEF709
:102C80006BF9282C38D040F22770844234D040F2BF
:102C90002660844230D040F2255084422CD040F24D
:102CA0002440844228D040F64600844224D040F696
:102CB0006A101DE000380140004400400048004018
:102CC000004C0040005000402E2E5C4C6962726146
:102CD00072795C7372635C73746D33326631307811
:102CE0005F75736172742E630000000021AA4400B6
:102CF000844201D0602C00D105E04FF4C571AFF2E1
:102D00003800FEF729F90FB1012F00D105E040F29C
:102D10008B11AFF24C00FEF71FF940F66A108442A7
:102D20000FD1F948854205D0F848854202D0F848CD
:102D3000854200D105E040F28F11AFF27400FEF73A
:102D40000BF92E46C4F3421804F01F0A012000FAC2
:102D50000AF9B8F1010F01D10C3605E0B8F1020F04
:102D600001D1103600E0143627B1306840EA09007E
:102D7000306003E0306820EA09003060BDE8F08789
:102D800070B504460D461646DF4884420BD0DF4836
:102D9000844208D0DE48844205D0DE48844202D016
:102DA000DD48844200D105E040F2C311AFF2E800F3
:102DB000FEF7D2F84FF63F70284008B905B105E09C
:102DC0004FF4E271AFF20010FEF7C6F80EB1012E1B
:102DD00000D105E040F2C511AFF21410FEF7BCF8C7
:102DE0001EB1A08A2843A08202E0A08AA843A08244
:102DF00070BD70B504460D46C34884420BD0C3482D
:102E0000844208D0C248844205D0C248844202D0DD
:102E1000C148844200D105E040F2DF11AFF2581002
:102E2000FEF79AF80F2D00DC05E04FF4F071AFF2D9
:102E30006810FEF791F8208A4FF6F0710840208262
:102E4000208A2843208270BD70B504460D46AE48E6
:102E500084420BD0AD48844208D0AD48844205D0AE
:102E6000AC48844202D0AC48844200D105E04FF423
:102E7000FB71AFF2AC10FEF76FF815B1B5F5006F4E
:102E800000D105E040F2F711AFF2C410FEF764F88C
:102E9000A0894FF2FF710840A081A0892843A0813A
:102EA00070BD70B504460D46974884420BD09748D4
:102EB000844208D09648844205D09648844202D085
:102EC0009548844200D105E040F20921AFF2082084
:102ED000FEF742F80DB1012D00D105E040F20A21C4
:102EE000AFF21C20FEF738F825B1A08940F00200AF
:102EF000A08104E0A0894FF6FD710840A08170BD5B
:102F000070B504460D46804884420BD07F48844209
:102F100008D07F48844205D07E48844202D07E4853
:102F2000844200D105E040F22621AFF26420FEF792
:102F300013F80DB1202D00D105E040F22721AFF2AA
:102F40007820FEF709F8208A4FF6DF7108402082CA
:102F5000208A2843208270BD70B504460D466A4819
:102F600084420BD06948844208D06948844205D025
:102F70006848844202D06848844200D105E040F2AB
:102F80003921AFF2BC20FDF7E7FF0DB1012D00D1D3
:102F900005E040F23A21AFF2D020FDF7DDFF25B188
:102FA000208A40F48040208204E0208A4BF6FF71A2
:102FB0000840208270BD70B504460D4652488442D8
:102FC0000BD05248844208D05148844205D0514821
:102FD000844202D05048844200D105E040F253219F
:102FE000AFF21C30FDF7B8FFB5F5007F00DA05E061
:102FF0004FF41571AFF23030FDF7AEFFC5F30800A6
:10300000A08070BD10B504463F4884420BD03F48B5
:10301000844208D03E48844205D03E48844202D0D3
:103020003D48844200D105E04FF41971AFF2683099
:10303000FDF792FFA088C0F3080010BD10B504464C
:10304000314884420BD03148844208D03048844211
:1030500005D03048844202D02F48844200D105E098
:103060004FF41D71AFF2A030FDF776FFA08940F05C
:103070000100A08110BD70B504460D46224884426F
:1030800005D02248844202D02148844200D105E084
:103090004FF42171AFF2D030FDF75EFF208BC0B24C
:1030A0002083208B40EA0520208370BD70B5044644
:1030B0000D46154884420BD01448844208D0144869
:1030C000844205D01348844202D01348844200D180
:1030D00005E04FF42671AFF21040FDF73DFF208B65
:1030E00000F47F402083208B2843208370BD70B57F
:1030F00004460D460448844205D00448844202D068
:10310000034884420AD10FE00038014000440040E7
:1031100000480040004C00400050004040F2AB210D
:10312000AFF25C40FDF718FF0DB1012D00D105E0B5
:103130004FF42B71AFF27040FDF70EFF25B1A08A5E
:1031400040F02000A08204E0A08A4FF6DF71084022
:10315000A08270BD70B504460D46F948844205D082
:10316000F848844202D0F848844200D105E04FF488
:103170003171AFF2AC40FDF7EFFE0DB1012D00D182
:1031800005E040F2C521AFF2C040FDF7E5FE25B1F4
:10319000A08A40F01000A08204E0A08A4FF6EF71F0
:1031A0000840A08270BD70B504460D46E4488442D4
:1031B0000BD0E448844208D0E348844205D0E34879
:1031C000844202D0E248844200D105E040F2DE2190
:1031D000AFF20C50FDF7C0FE0DB1012D00D105E09E
:1031E00040F2DF21AFF22050FDF7B6FE25B1A08AF4
:1031F00040F00800A08204E0A08A4FF6F771084072
:10320000A08270BD70B504460D46CD4884420BD0F7
:10321000CC48844208D0CC48844205D0CB48844274
:1032200002D0CB48844200D105E040F2FD21AFF24C
:103230006850FDF791FE0DB1012D00D105E040F27F
:10324000FE21AFF27C50FDF787FE25B1A08940F446
:103250000040A08103E0A089C0F30E00A08170BDF2
:1032600070B504460D46B64884420BD0B54884423A
:1032700008D0B548844205D0B448844202D0B4484E
:10328000844200D105E04FF44671AFF2C450FDF71F
:1032900063FE0DB1012D00D105E040F21931AFF20E
:1032A000D850FDF759FE25B1A08A40F40060A082F5
:1032B00004E0A08A4FF2FF710840A08270BD70B593
:1032C00004460D469E4884420BD09E48844208D056
:1032D0009D48844205D09D48844202D09C48844247
:1032E00000D105E040F23531AFF22460FDF734FE45
:1032F000042D00D005B905E040F23631AFF2386058
:10330000FDF72AFEA08A4FF6FB710840A082A08A32
:103310002843A08270BD70B504460D46884884429B
:103320000BD08848844208D08748844205D087481B
:10333000844202D08648844200D105E04FF45271A5
:10334000AFF27C60FDF708FE0DB1012D00D105E064
:1033500040F24931AFF29060FDF7FEFD25B1A08A41
:1033600040F00200A08204E0A08A4FF6FD71084000
:10337000A08270BD70B505460C4600267048854297
:103380000BD07048854208D06F48854205D06F4801
:10339000854202D06E48854200D105E040F26E3190
:1033A000AFF2DC60FDF7D8FD012C13D0802C11D0DA
:1033B000402C0FD0202C0DD0102C0BD0B4F5807FDA
:1033C00008D0B4F5007F05D0082C03D0042C01D020
:1033D000022C00D105E040F26F31AFF21470FDF71E
:1033E000BBFDB4F5007F0FD15548854205D0554847
:1033F000854202D05448854200D105E040F2733145
:10340000AFF23C70FDF7A8FD2888204008B10126E6
:1034100000E00026304670BD70B504460D464848B1
:1034200084420BD04748844208D04748844205D0A4
:103430004648844202D04648844200D105E040F22A
:103440009E31AFF27C70FDF787FD4FF69F4028401C
:1034500008B905B105E040F29F31AFF29470FDF775
:103460007BFD05F40070B0F5007F0FD13448844235
:1034700005D03448844202D03348844200D105E06C
:1034800040F2A331AFF2C070FDF766FDE843208043
:1034900070BD2DE9F04705460C4600270026B046D2
:1034A000B146274885420BD02648854208D0264899
:1034B000854205D02548854202D02548854200D165
:1034C00005E040F2C131AFF60000FDF745FD282CC4
:1034D00020D040F2277084421CD040F22660844203
:1034E00018D040F22550844214D040F22440844247
:1034F00010D040F6460084420CD040F66A10844258
:1035000008D0B4F5587F05D0B4F5187F02D0B4F5D3
:10351000B07F00D105E040F2C231AFF65400FDF7B4
:103520001BFD40F66A1084421AD10548854205D039
:103530000448854202D0044885420BD110E00000C7
:10354000003801400044004000480040004C00406A
:103550000050004040F2C631AFF69400FDF7FCFC8D
:10356000C4F3421804F01F06012000FA06F6B8F171
:10357000010F02D1A889064007E0B8F1020F02D17D
:10358000288A064001E0A88A06402712012000FA96
:1035900007F7288807401EB117B14FF0010901E075
:1035A0004FF000094846BDE8F0872DE9F041044698
:1035B0000D4600260027244884420BD0234884422D
:1035C00008D02348844205D02248844202D02248B1
:1035D000844200D105E040F20A41AFF61410FDF735
:1035E000BBFC40F2266085420BD040F2255085425C
:1035F00007D040F64600854203D040F66A10854267
:1036000000D105E040F20B41AFF64410FDF7A4FCF9
:1036100040F66A1085420FD10B48844205D00B4812
:10362000844202D00A48844200D105E040F20F41B2
:10363000AFF66C10FDF790FC2E120120B04087B25F
:10364000F8432080BDE8F08100380140004400408C
:1036500000480040004C00400050004010B50446B7
:10366000B4F5E06F0BD0B4F5C06F08D0B4F5A06F1F
:1036700005D0B4F5806F02D0B4F5407F00D103E0EF
:1036800063215DA0FDF768FC614820436149086043
:1036900010BD2DE9F0410446002500270F26E078F3
:1036A00010B1E078012800D103E0752152A0FDF7A8
:1036B00053FC6078102800DA03E076214EA0FDF775
:1036C0004BFCA078102800DA03E077214AA0FDF730
:1036D00043FCE07800B34F48006800F4E060C0F5B8
:1036E000E060050AC5F10407EE40607800FA07F5CE
:1036F000A078304005432D01474822788554207832
:1037000000F01F010120884021784911890001F152
:10371000E021C1F8000109E0207800F01F0101203C
:1037200088403E492278521141F82200BDE8F081DC
:1037300070B504460D46B4F1005F02D0B4F1006FDD
:1037400000D103E09F212CA0FDF706FC3448854200
:1037500000D203E0A02128A0FDF7FEFB314905EAD5
:10376000010020432B49091F086070BD70B5044655
:103770000D46102C03D0042C01D0022C00D103E004
:10378000B2211DA0FDF7E8FB0DB1012D00D103E032
:10379000B32119A0FDF7E0FB3DB11E48001D0068F4
:1037A00020431C49091D086006E01A48001D0068F6
:1037B000A0431849091D086070BD10B50446042CCB
:1037C00001D0601D00B903E0CA210BA0FDF7C4FBC6
:1037D000042C08D14FF0E020006940F004004FF0C5
:1037E000E021086107E04FF0E020006920F00400CC
:1037F0004FF0E021086110BD2E2E5C4C69627261B1
:1038000072795C7372635C6D6973632E6300000090
:103810000000FA050CED00E000E400E080E100E0CB
:10382000FFFF0F0080FFFF1F10B50446F8488442D9
:103830002FD0B4F1804F2CD0F648844229D0F648DE
:10384000844226D0F548844223D0F548844220D0D3
:10385000F44884421DD0F44884421AD0F34884428C
:1038600017D0F348844214D0F248844211D0F24871
:1038700084420ED0F14884420BD0F148844208D0F3
:10388000F048844205D0F048844202D0EF48844298
:1038900000D103E07D21EEA0FDF75EFBDC48844211
:1038A00008D10121C014FEF732FF0021E014FEF719
:1038B0002EFFC4E0B4F1804F08D101210846FEF785
:1038C0004FFF00210120FEF74BFFB8E0D1488442B2
:1038D00008D101210220FEF743FF00210220FEF75C
:1038E0003FFFACE0CC48844208D101210420FEF720
:1038F00037FF00210420FEF733FFA0E0C7488442D1
:1039000008D101210820FEF72BFF00210820FEF737
:1039100027FF94E0C248844208D101211020FEF71D
:103920001FFF00211020FEF71BFF88E0BD488442E6
:1039300008D101212020FEF713FF00212020FEF7EF
:103940000FFF7CE0B848844208D101214014FEF703
:10395000DEFE00216014FEF7DAFE70E0B348844218
:1039600009D10121C804FEF7D2FE00214FF4002046
:10397000FEF7CDFE63E0AE48844209D1012108057F
:10398000FEF7C5FE00214FF48010FEF7C0FE56E0A2
:10399000A848844209D101214805FEF7B8FE00215C
:1039A0004FF40010FEF7B3FE49E0A348844208D16B
:1039B00001214020FEF7D4FE00214020FEF7D0FE7A
:1039C0003DE09E48844208D101218020FEF7C8FED8
:1039D00000218020FEF7C4FE31E09948844208D1DE
:1039E00001218015FEF7BCFE0021A015FEF7B8FEF0
:1039F00025E09448844209D101210804FEF787FE9E
:103A000000214FF48030FEF782FE18E08E48844299
:103A100009D101214804FEF77AFE00214FF400305D
:103A2000FEF775FE0BE08948844208D10121880425
:103A3000FEF76DFE00214FF48020FEF768FE10BDFA
:103A400070B504460D460026714884422FD0B4F16B
:103A5000804F2CD06F48844229D06F48844226D0B2
:103A60006E48844223D06E48844220D06D48844200
:103A70001DD06D4884421AD06C48844217D06C48DF
:103A8000844214D06B48844211D06B4884420ED0DB
:103A90006A4884420BD06A48844208D0694884420C
:103AA00005D06948844202D06848844200D103E0CE
:103AB000E72167A0FDF750FA688858B16888102898
:103AC00008D06888202805D06888402802D06888F7
:103AD000602800D103E0E8215DA0FDF73DFAE88809
:103AE00038B1E888B0F5807F03D0E888B0F5007F72
:103AF00000D103E0E92156A0FDF72EFA26884448BC
:103B000084420ED0484884420BD0B4F1804F08D094
:103B10004048844205D04048844202D03F48844215
:103B200004D14FF68F700640688806433C488442B3
:103B300007D03C48844204D04FF6FF400640E88856
:103B400006432680A888A08528882085304884429E
:103B50000BD03548844208D03A48844205D03A48D0
:103B6000844202D03948844201D1287A208601203B
:103B7000A08270BD2DE9F04104460D464FF00008CB
:103B8000002600272248844229D0B4F1804F26D055
:103B90002048844223D02048844220D01F488442B9
:103BA0001DD0214884421AD02048844217D0204892
:103BB000844214D01F48844211D01F4884420ED042
:103BC0001E4884420BD01E48844208D01D488442BF
:103BD00005D01D48844202D01C48844200D104E034
:103BE0004FF48E711AA0FDF7B7F9288870B12888B4
:103BF00010280BD02888202808D02888302805D005
:103C00002888602802D02888702831D136E000004A
:103C1000002C01400004004000080040000C00405F
:103C2000001000400014004000340140004C0140EE
:103C3000005001400054014000180040001C0040AA
:103C40000020004000400140004401400048014085
:103C50002E2E5C4C6962726172795C7372635C7364
:103C6000746D3332663130785F74696D2E63000095
:103C700040F21D11AFF22800FDF76EF9688810B10F
:103C80006888012800D105E04FF48F71AFF2400041
:103C9000FDF762F9288910B12889022800D105E0D2
:103CA00040F21F11AFF25800FDF756F9208C4FF685
:103CB000FE7108402084268CA788B4F818804FF63F
:103CC0008F7008EA0008881E08EA0008288840EA81
:103CD0000808481E06402889064368880643FE48AF
:103CE00084420BD0FD48844208D0FD48844205D070
:103CF000FC48844202D0FC48844245D1A88810B1D7
:103D0000A888042800D105E04FF49E71AFF2C000EE
:103D1000FDF722F9688910B16889082800D105E00B
:103D200040F23D11AFF2D800FDF716F9E889B0F581
:103D3000007F01D0E88900B905E04FF49F71AFF230
:103D4000F000FDF709F9A889B0F5807F01D0A889B6
:103D500000B905E040F23F11AFF20C10FDF7FCF89E
:103D60004FF6F7700640688906434FF6FB70064031
:103D7000A88806434FF6FF6007404FF6FF50074004
:103D8000A8890743E8890743A780A4F81880E88832
:103D9000A0862684BDE8F0812DE9F04105460C4659
:103DA0004FF0000800260027CB48854217D0B5F118
:103DB000804F14D0CD48854211D0CD4885420ED0D9
:103DC000CC4885420BD0C548854208D0CA488542B8
:103DD00005D0CA48854202D0C148854200D105E0DD
:103DE00040F26F11AFF29810FDF7B6F8208870B16D
:103DF000208810280BD02088202808D02088302840
:103E000005D02088602802D02088702800D105E0E5
:103E10004FF4B871AFF2C810FDF79EF8608810B18A
:103E20006088012800D105E040F27111AFF2E01086
:103E3000FDF792F8208910B12089022800D105E011
:103E40004FF4B971AFF2F810FDF786F8288C4FF6F1
:103E5000EF71084028842E8CAF88B5F8188048F69A
:103E6000FF7008EA00084FF6FF4008EA00082088C3
:103E70004FF6FF7101EA002040EA08084FF6DF70B4
:103E80000640208901EA00100643608801EA00101C
:103E900006439148854202D0904885424FD1A08880
:103EA00010B1A088042800D105E040F28F11AFF2D4
:103EB0006020FDF751F8608910B16089082800D1B1
:103EC00005E04FF4C871AFF27820FDF745F8E089BE
:103ED000B0F5007F01D0E08900B905E040F2911112
:103EE000AFF29420FDF738F8A089B0F5807F01D0BB
:103EF000A08900B905E04FF4C971AFF2AC20FDF71D
:103F00002BF84FF67F70064060894FF6FF7101EA8B
:103F1000001006434FF6BF700640A08801EA00106B
:103F200006434FF6FF3007404FF2FF700740A0896D
:103F300001EA80000743E08901EA80000743AF807F
:103F4000A5F81880E08828872E84BDE8F0812DE947
:103F5000F04105460C464FF00008002600275E4859
:103F600085420ED0B5F1804F0BD06048854208D015
:103F70005F48854205D05F48854202D05748854258
:103F800000D105E040F2C111AFF23C30FCF7E4FF94
:103F9000208870B1208810280BD02088202808D0D5
:103FA0002088302805D02088602802D020887028FA
:103FB00000D105E04FF4E171AFF26C30FCF7CCFFBB
:103FC000608810B16088012800D105E040F2C3117B
:103FD000AFF28430FCF7C0FF208910B1208902289D
:103FE00000D105E04FF4E271AFF29C30FCF7B4FF72
:103FF000288C4FF6FF61084028842E8CAF88B5F8D6
:104000001C804FF68F7008EA00084FF6FC7008EA33
:104010000008208840EA08084FF6FF500640208933
:104020004FF6FF7101EA00200643608801EA002094
:1040300006432948854202D02848854264D1A08899
:1040400010B1A088042800D105E04FF4F071AFF260
:104050000040FCF781FF608910B16089082800D119
:1040600005E040F2E111AFF21840FCF775FFE0897E
:10407000B0F5007F01D0E08900B905E04FF4F1719F
:10408000AFF23440FCF768FFA089B0F5807F01D023
:10409000A08900B905E040F2E311AFF24C40FCF713
:1040A0005BFF4FF2FF70064060894FF6FF7101EA37
:1040B000002006434FF6FF300640A08801EA0020AA
:1040C00006434EF6FF7007404DF6FF700740A0898B
:1040D00001EA0010074313E0002C014000340140C6
:1040E00000400140004401400048014000040040FD
:1040F00000080040000C0040004C01400018004047
:10410000E08901EA00100743AF80A5F81C80E08831
:10411000A8872E84BDE8F0812DE9F04104460D46C4
:1041200000270026B046F84884420ED0B4F1804FF4
:104130000BD0F648844208D0F548844205D0F548B3
:10414000844202D0F448844200D105E04FF4047167
:10415000AFF20450FCF700FF288870B128881028BF
:104160000BD02888202808D02888302805D0288817
:10417000602802D02888702800D105E040F2112183
:10418000AFF23450FCF7E8FE688810B16888012867
:1041900000D105E040F21221AFF24C50FCF7DCFEFA
:1041A000288910B12889022800D105E040F21321A6
:1041B000AFF26450FCF7D0FE208C4EF6FF71084041
:1041C0002084268CB4F80480A78B48F6FF70074043
:1041D0004FF6FF40074028884FF6FF7101EA0020A4
:1041E00007434DF6FF700640288901EA0030064378
:1041F000688801EA00300643C348844202D0C648BA
:10420000844217D1A889B0F5807F01D0A88900B970
:1042100005E04FF40C71AFF2C850FCF79DFE4BF671
:10422000FF7008EA0008A8894FF6FF7101EA8010C4
:1042300040EA0808A4F80480A783E888A4F84000AE
:104240002684BDE8F08170B504460D46AE48844230
:104250000ED0B4F1804F0BD0AC48844208D0AC48AB
:10426000844205D0AB48844202D0AB48844200D19E
:1042700005E040F67611AFF22860FCF76DFE2DB137
:10428000042D03D0082D01D00C2D00D105E040F6FF
:104290007711AFF24460FCF75FFEA08B4FF2FF3165
:1042A0000840A083A08B4FF6FF7101EA0521084367
:1042B000A08370BDF0B50C461546002200210026F3
:1042C000078C4EF6FF7C07EA0C070784828B018C73
:1042D0004FF6FF7707EA043640F6FF473A404FF6BD
:1042E000FF7707EA05273A434FF6FF7707EA0337D8
:1042F0003A43854FB8420ED0874FB8420BD0B0F149
:10430000804F08D0814FB84205D0814FB84202D0CB
:10431000804FB84206D14DF6FF77394046F48057BA
:10432000394305E047F6FF57394044F48057394395
:1043300082830184F0BD70B504460D467248844204
:104340000ED0B4F1804F0BD07048844208D0704832
:10435000844205D06F48844202D06F48844200D125
:1043600005E04FF41661AFF21870FCF7F5FD2DB1C2
:10437000042D03D0082D01D00C2D00D105E040F60E
:104380006111AFF23470FCF7E7FDA08B4FF6F371CB
:104390000840A083A08B2843A08370BDF0B50C46D5
:1043A0001546002200210026078C4FF6FF6C07EA15
:1043B0000C070784828B018C4FF6FF7707EA0426EF
:1043C0004FF60C773A404FF6FF7707EA03172F4373
:1043D0003A434D4FB8420ED04F4FB8420BD0B0F1D8
:1043E000804F08D0494FB84205D0494FB84202D05B
:1043F000484FB84206D14FF6FF57394046F4807710
:10440000394305E04FF2FF57394044F48077394390
:1044100082830184F0BD70B504460D463A4884425B
:1044200017D0B4F1804F14D03848844211D03848A6
:1044300084420ED0374884420BD03748844208D09B
:104440003648844205D03648844202D035488442FA
:1044500000D105E040F64A11AFF60C00FCF77CFDF8
:104460002DB1042D03D0082D01D00C2D00D105E075
:1044700040F64B11AFF62800FCF76EFD208B4FF293
:10448000FF3108402083208B4FF6FF7101EA0521A0
:104490000843208370BDF0B50C461546002200216C
:1044A0000026078C4FF6EF7C07EA0C070784028B87
:1044B000018C4FF6FF7707EA041640F6FF473A40B3
:1044C0004FF6FF7707EA03373A434FF6FF7707EADD
:1044D00005273A430C4FB8420ED00F4FB8420BD0CD
:1044E000B0F1804F08D0094FB84205D0084FB8420C
:1044F00002D0084FB84217D14FF6DF77394046F067
:104500001007394316E00000002C01400004004071
:1045100000080040000C004000340140004C014005
:1045200000180040004001404FF65F77394044F0EA
:104530001007394302830184F0BD70B504460D466F
:10454000FB48844229D0B4F1804F26D0F9488442F8
:1045500023D0F948844220D0F84884421DD0F8483E
:1045600084421AD0F748844217D0F748844214D0C6
:10457000F648844211D0F64884420ED0F548844271
:104580000BD0F548844208D0F448844205D0F44862
:10459000844202D0F348844200D105E040F6341151
:1045A000AFF65410FCF7D8FC2DB1042D03D0082D24
:1045B00001D00C2D00D105E040F63511AFF670109A
:1045C000FCF7CAFC208B4FF6F37108402083208B48
:1045D0002843208370BDF0B50C461546002200210B
:1045E000068C4FF6FE773E400684028B018C4FF618
:1045F0000C7632407E1C06EA03162E433243CC4E24
:10460000B0420ED0CE4EB0420BD0B0F1804F08D0A9
:10461000C84EB04205D0C84EB04202D0C74EB042DC
:1046200006D14FF6FD76314044F00106314305E0F6
:104630004FF6F576314044F00106314302830184A0
:10464000F0BD70B504460D46288840B1288804287E
:1046500005D02888082802D028880C2800D105E039
:1046600040F24E21AFF61820FCF776FCA88801280E
:1046700005D0A888022802D0A888032800D105E028
:1046800040F24F21AFF63820FCF766FCE88840B1D5
:10469000E888042805D0E888082802D0E8880C2893
:1046A00000D105E04FF41471AFF65C20FCF754FC28
:1046B00028890F2800DC05E040F25121AFF6702078
:1046C000FCF74AFC9A4884420ED09D4884420BD0A5
:1046D000B4F1804F08D09748844205D09648844270
:1046E00002D0964884420CD1688810B168880228AC
:1046F00000D115E040F25621AFF6AC20FCF72CFCBF
:104700000EE0688828B16888022802D068880A28E4
:1047100000D105E040F25A21AFF6CC20FCF71CFC9A
:104720002888E0BB8248844229D0B4F1804F26D04B
:104730008048844223D08048844220D07F488442ED
:104740001DD07F4884421AD07E48844217D07E48CC
:10475000844214D07D48844211D07D4884420ED0DA
:104760007C4884420BD07C48844208D07B488442F9
:1047700005D07B48844202D07A48844200D105E0CB
:1047800040F25E21AFF63830FCF7E6FB2B89AA88B1
:1047900069882046FFF71FFFE988204600E002E015
:1047A000FFF7CBFE79E0288804282CD160488442AA
:1047B00017D0B4F1804F14D05E48844211D05E48C7
:1047C00084420ED05D4884420BD05D48844208D0BC
:1047D0005C48844205D05E48844202D05F488442EF
:1047E00000D105E04FF41A71AFF69C30FCF7B4FB32
:1047F0002B89AA8869882046FFF74DFEE988204664
:10480000FFF709FE49E02888082823D14848844258
:104810000ED0B4F1804F0BD04648844208D04648B1
:10482000844205D04548844202D04548844200D1A4
:1048300005E040F27221AFF6E830FCF78DFB2B89E2
:10484000AA8869882046FFF7A9FDE9882046FFF776
:1048500072FD22E0364884420ED0B4F1804F0BD076
:104860003448844208D03448844205D033488442D6
:1048700002D03348844200D105E04FF41F71AFF6F7
:104880003040FCF769FB2B89AA8869882046FFF72E
:1048900011FDE9882046FFF7D6FC70BD2DE9F041F7
:1048A00005460C46002601272148854217D0B5F160
:1048B000804F14D01F48854211D01F4885420ED02A
:1048C0001E4885420BD01E48854208D01D488542AF
:1048D00005D01F48854202D02048854200D105E01E
:1048E00040F29321AFF69840FCF736FB608808B998
:1048F000022600E00026A088012801D1022700E05E
:104900000127208880BB2389A28861882846FFF779
:1049100062FEE1882846FFF710FE23893A463146B9
:104920002846FFF7B8FDE1882846FFF774FD30E020
:10493000002C01400004004000080040000C004032
:1049400000340140004C014000500140005401403F
:1049500000180040001C00400020004000400140C2
:104960000044014000480140FFE72389A288618894
:104970002846FFF790FDE1882846FFF74CFD238984
:104980003A4631462846FFF726FEE1882846FFF7DB
:10499000D4FDBDE8F08170B505460C46FE48854261
:1049A0000BD0FE48854208D0FD48854205D0FD4821
:1049B000854202D0FC48854200D105E040F2CB217F
:1049C000AFF67450FCF7C8FA2088B0F5006F01D03C
:1049D000208800B905E04FF43371AFF68C50FCF736
:1049E000BBFA6088B0F5806F01D0608800B905E03F
:1049F00040F2CD21AFF6A850FCF7AEFAA08858B12E
:104A0000A088B0F5807F07D0A088B0F5007F03D0E4
:104A1000A088B0F5407F00D105E040F2CE21AFF68E
:104A2000D050FCF799FA2089B0F5805F01D0208939
:104A300000B905E040F2CF21AFF6EC50FCF78CFA5C
:104A4000608918B16089B0F5005F00D105E04FF4CE
:104A50003471AFF60460FCF77FFAA089B0F5804F9F
:104A600001D0A08900B905E040F2D121AFF6206065
:104A7000FCF772FA208861880843A1880843E1881E
:104A800008432189084361890843A1890843A5F89F
:104A9000440070BD4FF6FF71818000210180C1800C
:104AA0004180017270470021018041808180C18076
:104AB000018141818181C181704700210180418054
:104AC000012181800021C180018170470021018086
:104AD00041808180C180018141818181704770B5B1
:104AE00004460D46AC4884422FD0B4F1804F2CD000
:104AF000AE48844229D0AE48844226D0AD48844294
:104B000023D0AD48844220D0AC4884421DD0A34875
:104B100084421AD0AA48844217D0AA48844214D0AA
:104B2000A948844211D0A94884420ED0A8488442A2
:104B30000BD0A848844208D09948844205D09948AF
:104B4000844202D09848844200D105E040F22931E5
:104B5000AFF60470FCF700FA0DB1012D00D105E0AD
:104B600040F22A31AFF61870FCF7F6F925B120882B
:104B700040F00100208004E020884FF6FE710840DC
:104B8000208070BD70B504460D46834884420BD02A
:104B90008248844208D08248844205D081488442B9
:104BA00002D08148844200D105E040F24231AFF6A4
:104BB0006070FCF7D1F90DB1012D00D105E040F294
:104BC0004331AFF67470FCF7C7F935B1B4F844005F
:104BD00040F40040A4F8440005E0B4F84400C0F3F9
:104BE0000E00A4F8440070BD70B504460D4616468C
:104BF000694884422FD0B4F1804F2CD06B48844256
:104C000029D06B48844226D06A48844223D06A481F
:104C1000844220D0694884421DD0604884421AD022
:104C20006748844217D06748844214D0664884425B
:104C300011D0664884420ED0654884420BD0654846
:104C4000844208D05648844205D05648844202D057
:104C50005548844200D104E040F26B315E48FCF7D5
:104C60007BF905F47F4008B905B104E04FF45B71AE
:104C70005948FCF771F90EB1012E00D104E040F261
:104C80006D315548FCF768F91EB1A0892843A08111
:104C900002E0A089A843A08170BD70B504460D460E
:104CA0003D4884422FD0B4F1804F2CD03F488442FD
:104CB00029D03F48844226D03E48844223D03E48F3
:104CC000844220D03D4884421DD0344884421AD0CA
:104CD0003B48844217D03B48844214D03A4884422F
:104CE00011D03A4884420ED0394884420BD039481A
:104CF000844208D02A48844205D02A48844202D0FF
:104D00002948844200D104E04FF464713248FCF732
:104D100023F905F47F4008B905B104E040F2913170
:104D20002D48FCF719F9A58270BD70B506460C46F2
:104D300015461948864217D0B6F1804F14D01B484B
:104D4000864211D01A4886420ED01A4886420BD0AD
:104D50001248864208D01248864205D01148864241
:104D600002D01148864200D104E04FF46B711A481A
:104D7000FCF7F2F894B3012C45D0022C43D0032C5D
:104D800041D0042C3FD0052C3DD0062C3BD0072C25
:104D900039D0082C37D022E0002C014000340140EB
:104DA0000040014000440140004801400004004030
:104DB00000080040000C00400010004000140040BB
:104DC000004C0140005001400054014000180040D8
:104DD000001C004000200040503C000813E0092C5B
:104DE00011D00A2C0FD00B2C0DD00C2C0BD00D2C6D
:104DF00009D00E2C07D00F2C05D0102C03D0112C6D
:104E000001D0122C00D104E040F2AD31FB48FCF798
:104E1000A3F895B3B5F5807F2FD0B5F5007F2CD0E2
:104E2000B5F5407F29D0B5F5806F26D0B5F5A06FD8
:104E300023D0B5F5C06F20D0B5F5E06F1DD0B5F526
:104E4000006F1AD0B5F5106F17D0B5F5206F14D0DC
:104E5000B5F5306F11D0B5F5406F0ED0B5F5506F88
:104E60000BD0B5F5606F08D0B5F5706F05D0B5F50E
:104E7000805F02D0B5F5885F00D104E040F2AE312A
:104E8000DE48FCF769F844EA0500A6F8480070BD62
:104E900070B504460D461646D94884421DD0B4F17B
:104EA000804F1AD0D748844217D0D748844214D0B4
:104EB000D648844211D0D64884420ED0D548844288
:104EC0000BD0D548844208D0D448844205D0D44879
:104ED000844202D0D348844200D104E040F2C7317A
:104EE000C648FCF739F848F2FF00284008B905B178
:104EF00004E04FF47271C148FCF72EF80EB1012E98
:104F000000D104E040F2C931BC48FCF725F81EB1DD
:104F1000A0892843A08102E0A089A843A08170BD98
:104F200010B50446B648844217D0B4F1804F14D06F
:104F3000B448844211D0B44884420ED0B34884426D
:104F40000BD0B548844208D0B748844205D0B74852
:104F5000844202D0B148844200D104E04FF4787119
:104F6000A648FBF7F9FF20894FF6F8710840208129
:104F700010BD70B504460D460026A148844217D0E6
:104F8000B4F1804F14D09F48844211D09E4884428F
:104F90000ED09E4884420BD09F48844208D0A2483D
:104FA000844205D0A148844202D09C48844200D16A
:104FB00004E040F2D1419148FBF7CEFF6DB1102DD6
:104FC0000BD0202D09D0302D07D0402D05D0502DED
:104FD00003D0602D01D0702D00D104E040F2D24109
:104FE0008648FBF7B9FF26894FF68F7006402E439F
:104FF000268170BD70B504460D468148844217D0A5
:10500000B4F1804F14D07F48844211D07E4884424E
:105010000ED07E4884420BD07F48844208D082481C
:10502000844205D08148844202D07C48844200D129
:1050300004E040F2F3317148FBF78EFF2DB1102DE3
:1050400003D0202D01D0302D00D104E04FF47D712C
:105050006A48FBF781FF29462046FFF78AFF20892F
:1050600040F00700208170BD2DE9F04104460D4657
:1050700016461F466248844217D0B4F1804F14D0C0
:105080006048844211D0604884420ED05F48844218
:105090000BD06148844208D06348844205D06348FD
:1050A000844202D05D48844200D104E040F20F41C6
:1050B0005248FBF751FF502D03D0602D01D0402DF9
:1050C00000D104E04FF482614C48FBF745FF0EB17C
:1050D000022E00D104E040F211414848FBF73CFFAA
:1050E0000F2F00DC04E040F212414448FBF734FF8C
:1050F000602D06D13B46012231462046FFF7CBF911
:1051000005E03B46012231462046FFF764FA294676
:105110002046FFF72EFF208940F007002081BDE8E0
:10512000F0812DE9F04104460D4616461F464FF02A
:105130000008334884420ED0B4F1804F0BD0314880
:10514000844208D03048844205D03048844202D09E
:105150003148844200D104E040F281412748FBF706
:10516000FBFE45B1B5F5805F05D0B5F5005F02D017
:10517000B5F5405F00D104E040F282411F48FBF7E3
:10518000EBFEB6F5004F00D006B904E040F28341D3
:105190001A48FBF7E1FE0F2F00DC04E040F28441E7
:1051A0001648FBF7D9FEB4F8088008F0FF084FF660
:1051B000FF7000EA07203043284340EA0808A4F8BB
:1051C0000880BDE8F0812DE9F04104460D46174600
:1051D000984600260A4884420ED0B4F1804F0BD086
:1051E0000848844208D00848844205D007488442D1
:1051F00002D0094884421BD11FE00000503C000847
:10520000002C01400004004000080040000C004059
:1052100000100040001400400034014000400140F4
:105220000044014000480140004C0140001800408B
:105230004FF48761FE48FBF78FFE45B1B5F5805FFF
:1052400005D0B5F5005F02D0B5F5405F00D104E0B0
:1052500040F23941F648FBF77FFEB7F5004F00D02A
:1052600007B904E040F23A41F148FBF775FEB8F1A6
:105270000F0F00DC04E040F23B41ED48FBF76CFE11
:1052800043463A4629462046FFF74BFF26894FF60C
:10529000F870064046F007064FF68F70064046F05D
:1052A00070062681BDE8F0812DE9F04104460D46E7
:1052B00016461F46DF4884420ED0B4F1804F0BD013
:1052C000DD48844208D0DD48844205D0DC48844271
:1052D00002D0DC48844200D104E040F26141D4486D
:1052E000FBF73AFE45B1B5F5805F05D0B5F5005F37
:1052F00002D0B5F5405F00D104E040F26241CC48F5
:10530000FBF72AFEB6F5004F00D006B904E040F2E4
:105310006341C748FBF720FE0F2F00DC04E040F29A
:105320006441C348FBF718FE3B46324629462046F7
:10533000FFF7F7FE208940F480402081BDE8F0812E
:1053400070B504460E461546BA4884422FD0B4F1D3
:10535000804F2CD0B848844229D0B848844226D007
:10536000B748844223D0B848844220D0B74884420A
:105370001DD0B44884421AD0B548844217D0B548ED
:10538000844214D0B448844211D0B44884420ED030
:10539000B34884420BD0B348844208D0B248844218
:1053A00005D0B248844202D0B148844200D104E022
:1053B00040F29B419E48FBF7CFFD0DB1012D00D17E
:1053C00004E040F29C419A48FBF7C6FD2685A58281
:1053D00070BD70B504460D460026964884420ED036
:1053E000B4F1804F0BD09448844208D09348844253
:1053F00005D09348844202D09248844200D104E010
:1054000040F2B3418A48FBF7A7FD3DB1102D05D00E
:10541000202D03D0402D01D0602D00D104E040F2BA
:10542000B4418348FBF798FD26884FF68F700640FD
:105430002E43268070BD2DE9F04704460D461646E2
:105440001F464FF00008C146C2467A48844211D038
:10545000B4F1804F0ED0784884420BD07748844214
:1054600008D07748844205D07648844202D07E48EE
:10547000844200D104E04FF49F616D48FBF76CFD5E
:10548000012D03D0022D01D0032D00D104E040F204
:10549000F9416748FBF760FD0EB1022E00D104E030
:1054A00040F2FA416248FBF757FD0FB1022F00D1DD
:1054B00004E040F2FB415E48FBF74EFDB4F8088083
:1054C000B4F81890B4F820A04FF6F87008EA000875
:1054D00048EA05084FF6FC4009EA000940F20110CD
:1054E00049EA00094FF6DD700AEA000A4FF6FF703C
:1054F00000EA0710304340EA0A0AA4F80880A4F83A
:105500001890A4F820A0BDE8F08770B504460D46B9
:1055100000264848844229D0B4F1804F26D046481E
:10552000844223D04548844220D0454884421DD03F
:10553000444884421AD04648844217D045488442A1
:1055400014D04548844211D0444884420ED0444887
:1055500084420BD04348844208D04348844205D05B
:105560004248844202D04248844200D104E040F2E2
:1055700027512F48FBF7F0FC502D01D0402D00D1D2
:1055800004E04FF4A5612A48FBF7E6FC268B4FF6B2
:105590008F7006402E43268370BD70B504460D46BD
:1055A00000262448844217D0B4F1804F14D02248FA
:1055B000844211D0214884420ED0214884420BD02D
:1055C0002048844208D02248844205D0234884429F
:1055D00002D02548844200D104E040F23F511448F3
:1055E000FBF7BAFC502D01D0402D00D104E04FF460
:1055F000A8610F48FBF7B0FC268B48F6FF70064009
:105600004FF6FF7000EA05200643268370BD70B593
:1056100004460D4600260748844231D0B4F1804F3D
:105620002ED0054884422BD00448844228D021E063
:10563000503C0008002C01400004004000080040DD
:10564000000C0040003401400010004000140040F5
:10565000004C01400050014000540140001800403F
:10566000001C004000200040004001400044014078
:1056700000480140FD48844202D0FD48844200D1E8
:1056800004E040F25751FB48FBF766FC502D01D077
:10569000402D00D104E04FF4AB61F648FBF75CFC11
:1056A000A68B4FF68F7006402E43A68370BD70B553
:1056B00004460D460026F04884420ED0B4F1804FD7
:1056C0000BD0EE48844208D0ED48844205D0E7482C
:1056D000844202D0E648844200D104E040F26F5197
:1056E000E448FBF739FC502D01D0402D00D104E0F7
:1056F0004FF4AE61DF48FBF72FFCA68B48F6FF7036
:1057000006404FF6FF7000EA05200643A68370BDF1
:1057100070B504460D46D84884422FD0B4F1804F6E
:105720002CD0D648844229D0D548844226D0CF48B0
:10573000844223D0D348844220D0D34884421DD011
:10574000CB4884421AD0D148844217D0D0488442F2
:1057500014D0D048844211D0CF4884420ED0CF48D4
:1057600084420BD0CE48844208D0CE48844205D033
:10577000CD48844202D0CD48844200D104E040F2BA
:105780008451BC48FBF7E8FB0DB1012D00D104E0CA
:1057900040F28551B748FBF7DFFB25B1208840F088
:1057A0008000208004E020884FF67F710840208030
:1057B00070BD70B504460D46AF4884420BD0AC486E
:1057C000844208D0B748844205D0B748844202D00A
:1057D000B648844200D104E040F29C51A548FBF752
:1057E000BBFB0DB1012D00D104E040F29D51A14859
:1057F000FBF7B2FB25B1A08840F00400A08004E0D4
:10580000A0884FF6FB710840A08070BD70B50446BB
:105810000D469948844217D0B4F1804F14D0974870
:10582000844211D0964884420ED0904884420BD0D6
:105830008F48844208D09B48844205D09A488442CD
:1058400002D09A48844200D104E040F2B551894820
:10585000FBF782FB0DB1012D00D104E040F2B651FF
:105860008448FBF779FB25B1A08840F00800A080B0
:1058700004E0A0884FF6F7710840A08070BD70B5B5
:1058800004460D467C48844211D0B4F1804F0ED0BE
:105890007A4884420BD07A48844208D073488442C4
:1058A00005D07348844202D07E48844200D104E08F
:1058B00040F2CE516F48FBF74FFB0DB1012D00D1E7
:1058C00004E040F2CF516B48FBF746FB25B1A088BE
:1058D00040F00100A08004E0A0884FF6FE7108406F
:1058E000A08070BD70B504460D4600266248844213
:1058F00029D0B4F1804F26D06048844223D060483C
:10590000844220D0594884421DD0594884421AD03C
:105910005E48844217D05E48844214D05D48844279
:1059200011D05D4884420ED05C4884420BD05C4864
:10593000844208D05B48844205D05B48844202D050
:105940005A48844200D104E040F2E9514948FBF74B
:1059500003FB082D00D005B904E040F2EA514548A8
:10596000FBF7FAFA268B4FF6F77006402E43268394
:1059700070BD70B504460D4600263F48844217D0DE
:10598000B4F1804F14D03D48844211D03C48844249
:105990000ED0364884420BD03548844208D03B486C
:1059A000844205D03C48844202D03E48844200D123
:1059B00004E040F202612F48FBF7CEFA082D00D038
:1059C00005B904E040F203612A48FBF7C5FA268BCB
:1059D0004FF2FF7006404FF6FF7000EA05200643C5
:1059E000268370BD70B504460D46002622488442C9
:1059F0000ED0B4F1804F0BD02048844208D020480C
:105A0000844205D01948844202D01948844200D10A
:105A100004E040F21A611748FBF79EFA082D00D007
:105A200005B904E040F21B611248FBF795FAA68B1A
:105A30004FF6F77006402E43A68370BD70B504463E
:105A40000D4600260C4884420ED0B4F1804F0BD096
:105A50000A48844208D00A48844205D00348844258
:105A600002D00348844223D127E00000000C00400C
:105A700000340140503C0008002C0140000400406C
:105A8000000800400010004000140040004C01409D
:105A9000005001400054014000180040001C00402C
:105AA0000020004000400140004401400048014007
:105AB00040F23261F748FBF74FFA082D00D005B9E4
:105AC00004E040F23361F348FBF746FAA68B4FF24D
:105AD000FF7006404FF6FF7000EA05200643A683DC
